{
  "contractName": "Crowdfund",
  "abi": [
    {
      "inputs": [],
      "stateMutability": "nonpayable",
      "type": "constructor"
    },
    {
      "anonymous": false,
      "inputs": [
        {
          "indexed": false,
          "internalType": "address",
          "name": "projectcreator",
          "type": "address"
        }
      ],
      "name": "Projectcreated",
      "type": "event"
    },
    {
      "anonymous": false,
      "inputs": [
        {
          "indexed": false,
          "internalType": "address",
          "name": "fundingaddress",
          "type": "address"
        },
        {
          "indexed": false,
          "internalType": "uint256",
          "name": "fundingamount",
          "type": "uint256"
        }
      ],
      "name": "Projectfunded",
      "type": "event"
    },
    {
      "inputs": [
        {
          "internalType": "uint256",
          "name": "",
          "type": "uint256"
        }
      ],
      "name": "projects",
      "outputs": [
        {
          "internalType": "string",
          "name": "title",
          "type": "string"
        },
        {
          "internalType": "string",
          "name": "details",
          "type": "string"
        },
        {
          "internalType": "uint256",
          "name": "id",
          "type": "uint256"
        },
        {
          "internalType": "uint256",
          "name": "goalamount",
          "type": "uint256"
        },
        {
          "internalType": "uint256",
          "name": "fundraised",
          "type": "uint256"
        },
        {
          "internalType": "uint256",
          "name": "duedate",
          "type": "uint256"
        },
        {
          "internalType": "address payable",
          "name": "creator",
          "type": "address"
        },
        {
          "internalType": "enum Crowdfund.states",
          "name": "state",
          "type": "uint8"
        }
      ],
      "stateMutability": "view",
      "type": "function",
      "constant": true
    },
    {
      "inputs": [
        {
          "internalType": "string",
          "name": "_title",
          "type": "string"
        },
        {
          "internalType": "string",
          "name": "_details",
          "type": "string"
        },
        {
          "internalType": "uint256",
          "name": "_goalamount",
          "type": "uint256"
        },
        {
          "internalType": "uint256",
          "name": "_duedate",
          "type": "uint256"
        }
      ],
      "name": "addproject",
      "outputs": [],
      "stateMutability": "nonpayable",
      "type": "function"
    },
    {
      "inputs": [
        {
          "internalType": "uint256",
          "name": "id",
          "type": "uint256"
        }
      ],
      "name": "fundproject",
      "outputs": [],
      "stateMutability": "payable",
      "type": "function",
      "payable": true
    },
    {
      "inputs": [
        {
          "internalType": "uint256",
          "name": "_id",
          "type": "uint256"
        }
      ],
      "name": "getprojectdetails",
      "outputs": [
        {
          "internalType": "string",
          "name": "title",
          "type": "string"
        },
        {
          "internalType": "string",
          "name": "details",
          "type": "string"
        },
        {
          "internalType": "uint256",
          "name": "id",
          "type": "uint256"
        },
        {
          "internalType": "uint256",
          "name": "goalamount",
          "type": "uint256"
        },
        {
          "internalType": "uint256",
          "name": "fundraised",
          "type": "uint256"
        },
        {
          "internalType": "uint256",
          "name": "duedate",
          "type": "uint256"
        },
        {
          "internalType": "address",
          "name": "creator",
          "type": "address"
        },
        {
          "internalType": "enum Crowdfund.states",
          "name": "state",
          "type": "uint8"
        }
      ],
      "stateMutability": "view",
      "type": "function",
      "constant": true
    },
    {
      "inputs": [
        {
          "internalType": "uint256",
          "name": "_id",
          "type": "uint256"
        }
      ],
      "name": "checkprojecttime",
      "outputs": [],
      "stateMutability": "nonpayable",
      "type": "function"
    },
    {
      "inputs": [],
      "name": "getprojectlist",
      "outputs": [
        {
          "internalType": "uint256",
          "name": "",
          "type": "uint256"
        }
      ],
      "stateMutability": "view",
      "type": "function",
      "constant": true
    },
    {
      "inputs": [],
      "name": "balancecheck",
      "outputs": [
        {
          "internalType": "uint256",
          "name": "",
          "type": "uint256"
        }
      ],
      "stateMutability": "view",
      "type": "function",
      "constant": true
    },
    {
      "inputs": [
        {
          "internalType": "address",
          "name": "addr",
          "type": "address"
        }
      ],
      "name": "checkbalance",
      "outputs": [
        {
          "internalType": "uint256",
          "name": "",
          "type": "uint256"
        }
      ],
      "stateMutability": "view",
      "type": "function",
      "constant": true
    }
  ],
  "bytecode": "0x608060405234801561001057600080fd5b506000600181905550611659806100286000396000f3fe60806040526004361061007b5760003560e01c8063d2828fdf1161004e578063d2828fdf1461015c578063de22e6ac14610178578063e2f49406146101a1578063e83029bb146101cc5761007b565b8063107046bd146100805780634e00a362146100c457806354912178146101085780636032e86614610131575b600080fd5b34801561008c57600080fd5b506100a760048036038101906100a29190610dea565b610209565b6040516100bb989796959493929190610fa2565b60405180910390f35b3480156100d057600080fd5b506100eb60048036038101906100e69190610dea565b61038e565b6040516100ff98979695949392919061102e565b60405180910390f35b34801561011457600080fd5b5061012f600480360381019061012a9190610dea565b6105e7565b005b34801561013d57600080fd5b50610146610685565b604051610153919061117a565b60405180910390f35b61017660048036038101906101719190610dea565b61068d565b005b34801561018457600080fd5b5061019f600480360381019061019a9190610d4b565b6108ae565b005b3480156101ad57600080fd5b506101b6610b22565b6040516101c3919061117a565b60405180910390f35b3480156101d857600080fd5b506101f360048036038101906101ee9190610d1e565b610b2c565b604051610200919061117a565b60405180910390f35b600060205280600052604060002060009150905080600001805461022c90611312565b80601f016020809104026020016040519081016040528092919081815260200182805461025890611312565b80156102a55780601f1061027a576101008083540402835291602001916102a5565b820191906000526020600020905b81548152906001019060200180831161028857829003601f168201915b5050505050908060010180546102ba90611312565b80601f01602080910402602001604051908101604052809291908181526020018280546102e690611312565b80156103335780601f1061030857610100808354040283529160200191610333565b820191906000526020600020905b81548152906001019060200180831161031657829003601f168201915b5050505050908060020154908060030154908060040154908060050154908060060160009054906101000a900473ffffffffffffffffffffffffffffffffffffffff16908060060160149054906101000a900460ff16905088565b6060806000806000806000806001548911156103df576040517f08c379a00000000000000000000000000000000000000000000000000000000081526004016103d69061111a565b60405180910390fd5b6000808a815260200190815260200160002060000180546103ff90611312565b80601f016020809104026020016040519081016040528092919081815260200182805461042b90611312565b80156104785780601f1061044d57610100808354040283529160200191610478565b820191906000526020600020905b81548152906001019060200180831161045b57829003601f168201915b505050505097506000808a8152602001908152602001600020600101805461049f90611312565b80601f01602080910402602001604051908101604052809291908181526020018280546104cb90611312565b80156105185780601f106104ed57610100808354040283529160200191610518565b820191906000526020600020905b8154815290600101906020018083116104fb57829003601f168201915b505050505096506000808a81526020019081526020016000206002015495506000808a81526020019081526020016000206003015494506000808a81526020019081526020016000206004015493506000808a81526020019081526020016000206005015492506000808a815260200190815260200160002060060160009054906101000a900473ffffffffffffffffffffffffffffffffffffffff1691506000808a815260200190815260200160002060060160149054906101000a900460ff169050919395975091939597565b60008082815260200190815260200160002060050154421015806106355750600080828152602001908152602001600020600301546000808381526020019081526020016000206004015410155b1561068257600260008083815260200190815260200160002060060160146101000a81548160ff02191690836002811115610673576106726113ed565b5b021790555061068181610b4d565b5b50565b600047905090565b6001548111156106d2576040517f08c379a00000000000000000000000000000000000000000000000000000000081526004016106c99061111a565b60405180910390fd5b6002808111156106e5576106e46113ed565b5b60008083815260200190815260200160002060060160149054906101000a900460ff16600281111561071a576107196113ed565b5b141561075b576040517f08c379a0000000000000000000000000000000000000000000000000000000008152600401610752906110fa565b60405180910390fd5b60008082815260200190815260200160002060060160009054906101000a900473ffffffffffffffffffffffffffffffffffffffff1673ffffffffffffffffffffffffffffffffffffffff163373ffffffffffffffffffffffffffffffffffffffff1614156107ff576040517f08c379a00000000000000000000000000000000000000000000000000000000081526004016107f6906110ba565b60405180910390fd5b3460008083815260200190815260200160002060040160008282546108249190611207565b92505081905550600160008083815260200190815260200160002060060160146101000a81548160ff02191690836002811115610864576108636113ed565b5b0217905550610872816105e7565b7ff8dd5a84bfbd29f11a3d507e252ff24b7ddf57fa901537b60430d0da4a1f609833346040516108a3929190610f79565b60405180910390a150565b60008451116108f2576040517f08c379a00000000000000000000000000000000000000000000000000000000081526004016108e99061115a565b60405180910390fd5b60008211610935576040517f08c379a000000000000000000000000000000000000000000000000000000000815260040161092c9061113a565b60405180910390fd5b428111610977576040517f08c379a000000000000000000000000000000000000000000000000000000000815260040161096e906110da565b60405180910390fd5b6001600081548092919061098a90611375565b91905055506040518061010001604052808581526020018481526020016001548152602001838152602001600081526020018281526020013373ffffffffffffffffffffffffffffffffffffffff168152602001600060028111156109f2576109f16113ed565b5b81525060008060015481526020019081526020016000206000820151816000019080519060200190610a25929190610be1565b506020820151816001019080519060200190610a42929190610be1565b5060408201518160020155606082015181600301556080820151816004015560a0820151816005015560c08201518160060160006101000a81548173ffffffffffffffffffffffffffffffffffffffff021916908373ffffffffffffffffffffffffffffffffffffffff16021790555060e08201518160060160146101000a81548160ff02191690836002811115610add57610adc6113ed565b5b02179055509050507f6fd58118a13aefae16929f8a5d4706379737d388569a9ada4980e852e0fb871933604051610b149190610f5e565b60405180910390a150505050565b6000600154905090565b60008173ffffffffffffffffffffffffffffffffffffffff16319050919050565b60008082815260200190815260200160002060060160009054906101000a900473ffffffffffffffffffffffffffffffffffffffff1673ffffffffffffffffffffffffffffffffffffffff166108fc600080848152602001908152602001600020600401549081150290604051600060405180830381858888f19350505050158015610bdd573d6000803e3d6000fd5b5050565b828054610bed90611312565b90600052602060002090601f016020900481019282610c0f5760008555610c56565b82601f10610c2857805160ff1916838001178555610c56565b82800160010185558215610c56579182015b82811115610c55578251825591602001919060010190610c3a565b5b509050610c639190610c67565b5090565b5b80821115610c80576000816000905550600101610c68565b5090565b6000610c97610c92846111ba565b611195565b905082815260208101848484011115610cb357610cb261147f565b5b610cbe8482856112d0565b509392505050565b600081359050610cd5816115f5565b92915050565b600082601f830112610cf057610cef61147a565b5b8135610d00848260208601610c84565b91505092915050565b600081359050610d188161160c565b92915050565b600060208284031215610d3457610d33611489565b5b6000610d4284828501610cc6565b91505092915050565b60008060008060808587031215610d6557610d64611489565b5b600085013567ffffffffffffffff811115610d8357610d82611484565b5b610d8f87828801610cdb565b945050602085013567ffffffffffffffff811115610db057610daf611484565b5b610dbc87828801610cdb565b9350506040610dcd87828801610d09565b9250506060610dde87828801610d09565b91505092959194509250565b600060208284031215610e0057610dff611489565b5b6000610e0e84828501610d09565b91505092915050565b610e208161126f565b82525050565b610e2f8161125d565b82525050565b610e3e816112be565b82525050565b6000610e4f826111eb565b610e5981856111f6565b9350610e698185602086016112df565b610e728161148e565b840191505092915050565b6000610e8a6027836111f6565b9150610e958261149f565b604082019050919050565b6000610ead6010836111f6565b9150610eb8826114ee565b602082019050919050565b6000610ed06021836111f6565b9150610edb82611517565b604082019050919050565b6000610ef3600a836111f6565b9150610efe82611566565b602082019050919050565b6000610f16600d836111f6565b9150610f218261158f565b602082019050919050565b6000610f39600c836111f6565b9150610f44826115b8565b602082019050919050565b610f58816112b4565b82525050565b6000602082019050610f736000830184610e26565b92915050565b6000604082019050610f8e6000830185610e26565b610f9b6020830184610f4f565b9392505050565b6000610100820190508181036000830152610fbd818b610e44565b90508181036020830152610fd1818a610e44565b9050610fe06040830189610f4f565b610fed6060830188610f4f565b610ffa6080830187610f4f565b61100760a0830186610f4f565b61101460c0830185610e17565b61102160e0830184610e35565b9998505050505050505050565b6000610100820190508181036000830152611049818b610e44565b9050818103602083015261105d818a610e44565b905061106c6040830189610f4f565b6110796060830188610f4f565b6110866080830187610f4f565b61109360a0830186610f4f565b6110a060c0830185610e26565b6110ad60e0830184610e35565b9998505050505050505050565b600060208201905081810360008301526110d381610e7d565b9050919050565b600060208201905081810360008301526110f381610ea0565b9050919050565b6000602082019050818103600083015261111381610ec3565b9050919050565b6000602082019050818103600083015261113381610ee6565b9050919050565b6000602082019050818103600083015261115381610f09565b9050919050565b6000602082019050818103600083015261117381610f2c565b9050919050565b600060208201905061118f6000830184610f4f565b92915050565b600061119f6111b0565b90506111ab8282611344565b919050565b6000604051905090565b600067ffffffffffffffff8211156111d5576111d461144b565b5b6111de8261148e565b9050602081019050919050565b600081519050919050565b600082825260208201905092915050565b6000611212826112b4565b915061121d836112b4565b9250827fffffffffffffffffffffffffffffffffffffffffffffffffffffffffffffffff03821115611252576112516113be565b5b828201905092915050565b600061126882611294565b9050919050565b600061127a82611294565b9050919050565b600081905061128f826115e1565b919050565b600073ffffffffffffffffffffffffffffffffffffffff82169050919050565b6000819050919050565b60006112c982611281565b9050919050565b82818337600083830152505050565b60005b838110156112fd5780820151818401526020810190506112e2565b8381111561130c576000848401525b50505050565b6000600282049050600182168061132a57607f821691505b6020821081141561133e5761133d61141c565b5b50919050565b61134d8261148e565b810181811067ffffffffffffffff8211171561136c5761136b61144b565b5b80604052505050565b6000611380826112b4565b91507fffffffffffffffffffffffffffffffffffffffffffffffffffffffffffffffff8214156113b3576113b26113be565b5b600182019050919050565b7f4e487b7100000000000000000000000000000000000000000000000000000000600052601160045260246000fd5b7f4e487b7100000000000000000000000000000000000000000000000000000000600052602160045260246000fd5b7f4e487b7100000000000000000000000000000000000000000000000000000000600052602260045260246000fd5b7f4e487b7100000000000000000000000000000000000000000000000000000000600052604160045260246000fd5b600080fd5b600080fd5b600080fd5b600080fd5b6000601f19601f8301169050919050565b7f50726f6a6563742063726561746f722063616e6e6f742066756e64207468652060008201527f70726f6a65637400000000000000000000000000000000000000000000000000602082015250565b7f496e76616c696420647565206461746500000000000000000000000000000000600082015250565b7f46756e64696e672069736e6f7420617661696c61626c65207269676874206e6f60008201527f7700000000000000000000000000000000000000000000000000000000000000602082015250565b7f496e76616c696420696400000000000000000000000000000000000000000000600082015250565b7f496e7661696420616d6f756e7400000000000000000000000000000000000000600082015250565b7f496e76616964205469746c650000000000000000000000000000000000000000600082015250565b600381106115f2576115f16113ed565b5b50565b6115fe8161125d565b811461160957600080fd5b50565b611615816112b4565b811461162057600080fd5b5056fea26469706673582212206f76f76bdb822d7b809fd406aa0a426dc5b47e61386adb5edac7510861d7cc4e64736f6c63430008050033",
  "immutableReferences": {},
  "source": "// SPDX-License-Identifier: MIT\npragma solidity ^0.8.4;\ncontract Crowdfund{    \n    enum states{\n        start,\n        funding,\n        end\n    }\n    struct project {\n        string title;\n        string details;\n        uint256 id;\n        uint256 goalamount;\n        uint256 fundraised;\n        uint256 duedate;\n        address  payable creator;\n        states state;\n    }\n    \n    mapping(uint => project)  public projects;\n    uint counter;\n    \n    event Projectcreated( address projectcreator);\n    event Projectfunded( address fundingaddress, uint256 fundingamount);\n   \n    constructor(){\n        counter = 0; \n    }\n    \n    //add project to blockchain\n    function addproject( string memory _title, string memory _details,  uint256 _goalamount, uint256 _duedate \n    ) public {\n        require(bytes(_title).length>0,\"Invaid Title\");\n        require(_goalamount>0,\"Invaid amount\");\n        require(_duedate>block.timestamp,\"Invalid due date\");\n        counter ++;\n        projects[counter] = project(_title, _details ,counter, _goalamount ,0,_duedate, payable(msg.sender),states.start);\n        emit Projectcreated( msg.sender);\n        \n    }\n    \n    //fund the project \n    function fundproject(uint256 id ) public payable{\n\n        require(id <= counter,\"Invalid id\");\n        require(projects[id].state != states.end,\"Funding isnot available right now\");\n        require(msg.sender != projects[id].creator,\"Project creator cannot fund the project\");\n        projects[id].fundraised += msg.value;\n        projects[id].state = states.funding;\n        checkprojecttime(id);\n\n        emit Projectfunded( msg.sender,  msg.value);\n    }\n    \n    //get the list of total project present the blockchain \n    function getprojectdetails(uint256 _id) public view returns(string memory title , string memory details, uint256 id, \n    \n        uint256 goalamount,\n        uint256 fundraised,\n        uint256 duedate,\n        address creator, \n        states state\n        ){\n        require(_id <= counter,\"Invalid id\");\n        title = projects[_id].title;\n        details = projects[_id].details;\n        id = projects[_id].id;\n        goalamount = projects[_id].goalamount;\n        fundraised = projects[_id].fundraised;\n        duedate = projects[_id].duedate;\n        creator = projects[_id].creator;\n        state = projects[_id].state;\n        return( title, details, id, goalamount,fundraised,duedate,creator,state);\n    } \n    \n    \n    //decide whether to close funding or not\n    function checkprojecttime(uint _id) public {\n        if(block.timestamp >= projects[_id].duedate || projects[_id].fundraised >= projects[_id].goalamount){\n            projects[_id].state = states.end;\n            transferbalance(_id);\n        }\n        \n        \n    }\n    //get Details of the project \n    function getprojectlist() public view returns(uint){\n        return(counter);\n\n    }\n    function balancecheck() public view returns(uint){\n        return address(this).balance;\n    }\n    function transferbalance(uint _id) internal   {\n        projects[_id].creator.transfer(projects[_id].fundraised);\n        \n    }\n    function checkbalance(address addr) public view returns(uint){\n        return addr.balance;\n    }\n    \n}",
  "sourcePath": "/home/anu/Blockchain/Crowdfunding/contracts/Crowdfund.sol",
  "compiler": {
    "name": "solc",
    "version": "0.8.5+commit.a4f2e591.Emscripten.clang"
  },
  "schemaVersion": "3.4.0",
  "updatedAt": "2021-06-20T05:08:07.142Z",
  "networkType": "ethereum",
  "devdoc": {
    "kind": "dev",
    "methods": {},
    "version": 1
  },
  "userdoc": {
    "kind": "user",
    "methods": {},
    "version": 1
  }
}