{
  "contractName": "Crowdfund",
  "abi": [
    {
      "inputs": [],
      "stateMutability": "nonpayable",
      "type": "constructor"
    },
    {
      "anonymous": false,
      "inputs": [
        {
          "indexed": false,
          "internalType": "address",
          "name": "projectcreator",
          "type": "address"
        },
        {
          "indexed": false,
          "internalType": "string",
          "name": "title",
          "type": "string"
        },
        {
          "indexed": false,
          "internalType": "string",
          "name": "details",
          "type": "string"
        },
        {
          "indexed": false,
          "internalType": "uint256",
          "name": "goal",
          "type": "uint256"
        },
        {
          "indexed": false,
          "internalType": "uint256",
          "name": "deadline",
          "type": "uint256"
        }
      ],
      "name": "Projectcreated",
      "type": "event"
    },
    {
      "anonymous": false,
      "inputs": [
        {
          "indexed": false,
          "internalType": "address",
          "name": "fundingaddress",
          "type": "address"
        },
        {
          "indexed": false,
          "internalType": "uint256",
          "name": "fundingamount",
          "type": "uint256"
        }
      ],
      "name": "Projectfunded",
      "type": "event"
    },
    {
      "inputs": [
        {
          "internalType": "uint256",
          "name": "",
          "type": "uint256"
        }
      ],
      "name": "projects",
      "outputs": [
        {
          "internalType": "string",
          "name": "title",
          "type": "string"
        },
        {
          "internalType": "string",
          "name": "details",
          "type": "string"
        },
        {
          "internalType": "uint256",
          "name": "id",
          "type": "uint256"
        },
        {
          "internalType": "uint256",
          "name": "goalamount",
          "type": "uint256"
        },
        {
          "internalType": "uint256",
          "name": "fundraised",
          "type": "uint256"
        },
        {
          "internalType": "uint256",
          "name": "duedate",
          "type": "uint256"
        },
        {
          "internalType": "address payable",
          "name": "creator",
          "type": "address"
        },
        {
          "internalType": "enum Crowdfund.states",
          "name": "state",
          "type": "uint8"
        }
      ],
      "stateMutability": "view",
      "type": "function",
      "constant": true
    },
    {
      "inputs": [
        {
          "internalType": "string",
          "name": "_title",
          "type": "string"
        },
        {
          "internalType": "string",
          "name": "_details",
          "type": "string"
        },
        {
          "internalType": "uint256",
          "name": "_goalamount",
          "type": "uint256"
        },
        {
          "internalType": "uint256",
          "name": "_duedate",
          "type": "uint256"
        }
      ],
      "name": "addproject",
      "outputs": [],
      "stateMutability": "nonpayable",
      "type": "function"
    },
    {
      "inputs": [
        {
          "internalType": "uint256",
          "name": "id",
          "type": "uint256"
        }
      ],
      "name": "fundproject",
      "outputs": [],
      "stateMutability": "payable",
      "type": "function",
      "payable": true
    },
    {
      "inputs": [
        {
          "internalType": "uint256",
          "name": "_id",
          "type": "uint256"
        }
      ],
      "name": "getprojectdetails",
      "outputs": [
        {
          "internalType": "string",
          "name": "title",
          "type": "string"
        },
        {
          "internalType": "string",
          "name": "details",
          "type": "string"
        },
        {
          "internalType": "uint256",
          "name": "id",
          "type": "uint256"
        },
        {
          "internalType": "uint256",
          "name": "goalamount",
          "type": "uint256"
        },
        {
          "internalType": "uint256",
          "name": "fundraised",
          "type": "uint256"
        },
        {
          "internalType": "uint256",
          "name": "duedate",
          "type": "uint256"
        },
        {
          "internalType": "address",
          "name": "creator",
          "type": "address"
        },
        {
          "internalType": "enum Crowdfund.states",
          "name": "state",
          "type": "uint8"
        }
      ],
      "stateMutability": "view",
      "type": "function",
      "constant": true
    },
    {
      "inputs": [
        {
          "internalType": "uint256",
          "name": "_id",
          "type": "uint256"
        }
      ],
      "name": "checkprojecttime",
      "outputs": [],
      "stateMutability": "nonpayable",
      "type": "function"
    },
    {
      "inputs": [],
      "name": "getprojectlist",
      "outputs": [
        {
          "internalType": "uint256",
          "name": "",
          "type": "uint256"
        }
      ],
      "stateMutability": "view",
      "type": "function",
      "constant": true
    },
    {
      "inputs": [],
      "name": "balancecheck",
      "outputs": [
        {
          "internalType": "uint256",
          "name": "",
          "type": "uint256"
        }
      ],
      "stateMutability": "view",
      "type": "function",
      "constant": true
    },
    {
      "inputs": [
        {
          "internalType": "address",
          "name": "addr",
          "type": "address"
        }
      ],
      "name": "checkbalance",
      "outputs": [
        {
          "internalType": "uint256",
          "name": "",
          "type": "uint256"
        }
      ],
      "stateMutability": "view",
      "type": "function",
      "constant": true
    }
  ],
  "bytecode": "0x608060405234801561001057600080fd5b5060006001819055506116a7806100286000396000f3fe60806040526004361061007b5760003560e01c8063d2828fdf1161004e578063d2828fdf1461015c578063de22e6ac14610178578063e2f49406146101a1578063e83029bb146101cc5761007b565b8063107046bd146100805780634e00a362146100c457806354912178146101085780636032e86614610131575b600080fd5b34801561008c57600080fd5b506100a760048036038101906100a29190610df2565b610209565b6040516100bb989796959493929190610ff0565b60405180910390f35b3480156100d057600080fd5b506100eb60048036038101906100e69190610df2565b61038e565b6040516100ff98979695949392919061107c565b60405180910390f35b34801561011457600080fd5b5061012f600480360381019061012a9190610df2565b6105e7565b005b34801561013d57600080fd5b50610146610685565b60405161015391906111c8565b60405180910390f35b61017660048036038101906101719190610df2565b61068d565b005b34801561018457600080fd5b5061019f600480360381019061019a9190610d53565b6108ae565b005b3480156101ad57600080fd5b506101b6610b2a565b6040516101c391906111c8565b60405180910390f35b3480156101d857600080fd5b506101f360048036038101906101ee9190610d26565b610b34565b60405161020091906111c8565b60405180910390f35b600060205280600052604060002060009150905080600001805461022c90611360565b80601f016020809104026020016040519081016040528092919081815260200182805461025890611360565b80156102a55780601f1061027a576101008083540402835291602001916102a5565b820191906000526020600020905b81548152906001019060200180831161028857829003601f168201915b5050505050908060010180546102ba90611360565b80601f01602080910402602001604051908101604052809291908181526020018280546102e690611360565b80156103335780601f1061030857610100808354040283529160200191610333565b820191906000526020600020905b81548152906001019060200180831161031657829003601f168201915b5050505050908060020154908060030154908060040154908060050154908060060160009054906101000a900473ffffffffffffffffffffffffffffffffffffffff16908060060160149054906101000a900460ff16905088565b6060806000806000806000806001548911156103df576040517f08c379a00000000000000000000000000000000000000000000000000000000081526004016103d690611168565b60405180910390fd5b6000808a815260200190815260200160002060000180546103ff90611360565b80601f016020809104026020016040519081016040528092919081815260200182805461042b90611360565b80156104785780601f1061044d57610100808354040283529160200191610478565b820191906000526020600020905b81548152906001019060200180831161045b57829003601f168201915b505050505097506000808a8152602001908152602001600020600101805461049f90611360565b80601f01602080910402602001604051908101604052809291908181526020018280546104cb90611360565b80156105185780601f106104ed57610100808354040283529160200191610518565b820191906000526020600020905b8154815290600101906020018083116104fb57829003601f168201915b505050505096506000808a81526020019081526020016000206002015495506000808a81526020019081526020016000206003015494506000808a81526020019081526020016000206004015493506000808a81526020019081526020016000206005015492506000808a815260200190815260200160002060060160009054906101000a900473ffffffffffffffffffffffffffffffffffffffff1691506000808a815260200190815260200160002060060160149054906101000a900460ff169050919395975091939597565b60008082815260200190815260200160002060050154421015806106355750600080828152602001908152602001600020600301546000808381526020019081526020016000206004015410155b1561068257600260008083815260200190815260200160002060060160146101000a81548160ff021916908360028111156106735761067261143b565b5b021790555061068181610b55565b5b50565b600047905090565b6001548111156106d2576040517f08c379a00000000000000000000000000000000000000000000000000000000081526004016106c990611168565b60405180910390fd5b6002808111156106e5576106e461143b565b5b60008083815260200190815260200160002060060160149054906101000a900460ff16600281111561071a5761071961143b565b5b141561075b576040517f08c379a000000000000000000000000000000000000000000000000000000000815260040161075290611148565b60405180910390fd5b60008082815260200190815260200160002060060160009054906101000a900473ffffffffffffffffffffffffffffffffffffffff1673ffffffffffffffffffffffffffffffffffffffff163373ffffffffffffffffffffffffffffffffffffffff1614156107ff576040517f08c379a00000000000000000000000000000000000000000000000000000000081526004016107f690611108565b60405180910390fd5b3460008083815260200190815260200160002060040160008282546108249190611255565b92505081905550600160008083815260200190815260200160002060060160146101000a81548160ff021916908360028111156108645761086361143b565b5b0217905550610872816105e7565b7ff8dd5a84bfbd29f11a3d507e252ff24b7ddf57fa901537b60430d0da4a1f609833346040516108a3929190610fc7565b60405180910390a150565b60008451116108f2576040517f08c379a00000000000000000000000000000000000000000000000000000000081526004016108e9906111a8565b60405180910390fd5b60008211610935576040517f08c379a000000000000000000000000000000000000000000000000000000000815260040161092c90611188565b60405180910390fd5b428111610977576040517f08c379a000000000000000000000000000000000000000000000000000000000815260040161096e90611128565b60405180910390fd5b6001600081548092919061098a906113c3565b91905055506040518061010001604052808581526020018481526020016001548152602001838152602001600081526020018281526020013373ffffffffffffffffffffffffffffffffffffffff168152602001600060028111156109f2576109f161143b565b5b81525060008060015481526020019081526020016000206000820151816000019080519060200190610a25929190610be9565b506020820151816001019080519060200190610a42929190610be9565b5060408201518160020155606082015181600301556080820151816004015560a0820151816005015560c08201518160060160006101000a81548173ffffffffffffffffffffffffffffffffffffffff021916908373ffffffffffffffffffffffffffffffffffffffff16021790555060e08201518160060160146101000a81548160ff02191690836002811115610add57610adc61143b565b5b02179055509050507fd6aa8d54feb702724cfb031a41e609ea7c3029d721ce5ae0a58368b9a8da4abd3385858585604051610b1c959493929190610f66565b60405180910390a150505050565b6000600154905090565b60008173ffffffffffffffffffffffffffffffffffffffff16319050919050565b60008082815260200190815260200160002060060160009054906101000a900473ffffffffffffffffffffffffffffffffffffffff1673ffffffffffffffffffffffffffffffffffffffff166108fc600080848152602001908152602001600020600401549081150290604051600060405180830381858888f19350505050158015610be5573d6000803e3d6000fd5b5050565b828054610bf590611360565b90600052602060002090601f016020900481019282610c175760008555610c5e565b82601f10610c3057805160ff1916838001178555610c5e565b82800160010185558215610c5e579182015b82811115610c5d578251825591602001919060010190610c42565b5b509050610c6b9190610c6f565b5090565b5b80821115610c88576000816000905550600101610c70565b5090565b6000610c9f610c9a84611208565b6111e3565b905082815260208101848484011115610cbb57610cba6114cd565b5b610cc684828561131e565b509392505050565b600081359050610cdd81611643565b92915050565b600082601f830112610cf857610cf76114c8565b5b8135610d08848260208601610c8c565b91505092915050565b600081359050610d208161165a565b92915050565b600060208284031215610d3c57610d3b6114d7565b5b6000610d4a84828501610cce565b91505092915050565b60008060008060808587031215610d6d57610d6c6114d7565b5b600085013567ffffffffffffffff811115610d8b57610d8a6114d2565b5b610d9787828801610ce3565b945050602085013567ffffffffffffffff811115610db857610db76114d2565b5b610dc487828801610ce3565b9350506040610dd587828801610d11565b9250506060610de687828801610d11565b91505092959194509250565b600060208284031215610e0857610e076114d7565b5b6000610e1684828501610d11565b91505092915050565b610e28816112bd565b82525050565b610e37816112ab565b82525050565b610e468161130c565b82525050565b6000610e5782611239565b610e618185611244565b9350610e7181856020860161132d565b610e7a816114dc565b840191505092915050565b6000610e92602783611244565b9150610e9d826114ed565b604082019050919050565b6000610eb5601083611244565b9150610ec08261153c565b602082019050919050565b6000610ed8602183611244565b9150610ee382611565565b604082019050919050565b6000610efb600a83611244565b9150610f06826115b4565b602082019050919050565b6000610f1e600d83611244565b9150610f29826115dd565b602082019050919050565b6000610f41600c83611244565b9150610f4c82611606565b602082019050919050565b610f6081611302565b82525050565b600060a082019050610f7b6000830188610e2e565b8181036020830152610f8d8187610e4c565b90508181036040830152610fa18186610e4c565b9050610fb06060830185610f57565b610fbd6080830184610f57565b9695505050505050565b6000604082019050610fdc6000830185610e2e565b610fe96020830184610f57565b9392505050565b600061010082019050818103600083015261100b818b610e4c565b9050818103602083015261101f818a610e4c565b905061102e6040830189610f57565b61103b6060830188610f57565b6110486080830187610f57565b61105560a0830186610f57565b61106260c0830185610e1f565b61106f60e0830184610e3d565b9998505050505050505050565b6000610100820190508181036000830152611097818b610e4c565b905081810360208301526110ab818a610e4c565b90506110ba6040830189610f57565b6110c76060830188610f57565b6110d46080830187610f57565b6110e160a0830186610f57565b6110ee60c0830185610e2e565b6110fb60e0830184610e3d565b9998505050505050505050565b6000602082019050818103600083015261112181610e85565b9050919050565b6000602082019050818103600083015261114181610ea8565b9050919050565b6000602082019050818103600083015261116181610ecb565b9050919050565b6000602082019050818103600083015261118181610eee565b9050919050565b600060208201905081810360008301526111a181610f11565b9050919050565b600060208201905081810360008301526111c181610f34565b9050919050565b60006020820190506111dd6000830184610f57565b92915050565b60006111ed6111fe565b90506111f98282611392565b919050565b6000604051905090565b600067ffffffffffffffff82111561122357611222611499565b5b61122c826114dc565b9050602081019050919050565b600081519050919050565b600082825260208201905092915050565b600061126082611302565b915061126b83611302565b9250827fffffffffffffffffffffffffffffffffffffffffffffffffffffffffffffffff038211156112a05761129f61140c565b5b828201905092915050565b60006112b6826112e2565b9050919050565b60006112c8826112e2565b9050919050565b60008190506112dd8261162f565b919050565b600073ffffffffffffffffffffffffffffffffffffffff82169050919050565b6000819050919050565b6000611317826112cf565b9050919050565b82818337600083830152505050565b60005b8381101561134b578082015181840152602081019050611330565b8381111561135a576000848401525b50505050565b6000600282049050600182168061137857607f821691505b6020821081141561138c5761138b61146a565b5b50919050565b61139b826114dc565b810181811067ffffffffffffffff821117156113ba576113b9611499565b5b80604052505050565b60006113ce82611302565b91507fffffffffffffffffffffffffffffffffffffffffffffffffffffffffffffffff8214156114015761140061140c565b5b600182019050919050565b7f4e487b7100000000000000000000000000000000000000000000000000000000600052601160045260246000fd5b7f4e487b7100000000000000000000000000000000000000000000000000000000600052602160045260246000fd5b7f4e487b7100000000000000000000000000000000000000000000000000000000600052602260045260246000fd5b7f4e487b7100000000000000000000000000000000000000000000000000000000600052604160045260246000fd5b600080fd5b600080fd5b600080fd5b600080fd5b6000601f19601f8301169050919050565b7f50726f6a6563742063726561746f722063616e6e6f742066756e64207468652060008201527f70726f6a65637400000000000000000000000000000000000000000000000000602082015250565b7f496e76616c696420647565206461746500000000000000000000000000000000600082015250565b7f46756e64696e672069736e6f7420617661696c61626c65207269676874206e6f60008201527f7700000000000000000000000000000000000000000000000000000000000000602082015250565b7f496e76616c696420696400000000000000000000000000000000000000000000600082015250565b7f496e7661696420616d6f756e7400000000000000000000000000000000000000600082015250565b7f496e76616964205469746c650000000000000000000000000000000000000000600082015250565b600381106116405761163f61143b565b5b50565b61164c816112ab565b811461165757600080fd5b50565b61166381611302565b811461166e57600080fd5b5056fea26469706673582212203223fc90267309f2ab9bc014ca25ed7ecf315142d6be2d23b6f6d016e4d68bba64736f6c63430008050033",
  "immutableReferences": {},
  "source": "// SPDX-License-Identifier: MIT\npragma solidity ^0.8.4;\ncontract Crowdfund{    \n    enum states{\n        start,\n        funding,\n        end\n    }\n    struct project {\n        string title;\n        string details;\n        uint256 id;\n        uint256 goalamount;\n        uint256 fundraised;\n        uint256 duedate;\n        address  payable creator;\n        states state;\n    }\n    \n    mapping(uint => project)  public projects;\n    uint counter;\n    \n    event Projectcreated( address projectcreator ,string title, string details,uint256 goal, uint deadline);\n    event Projectfunded( address fundingaddress, uint256 fundingamount);\n   \n    constructor(){\n        counter = 0; \n    }\n    \n    //add project to blockchain\n    function addproject( string memory _title, string memory _details,  uint256 _goalamount, uint256 _duedate \n    ) public {\n        require(bytes(_title).length>0,\"Invaid Title\");\n        require(_goalamount>0,\"Invaid amount\");\n        require(_duedate>block.timestamp,\"Invalid due date\");\n        counter ++;\n        projects[counter] = project(_title, _details ,counter, _goalamount ,0,_duedate, payable(msg.sender),states.start);\n        emit Projectcreated( msg.sender,_title,_details,_goalamount,_duedate);\n        \n    }\n    \n    //fund the project \n    function fundproject(uint256 id ) public payable{\n\n        require(id <= counter,\"Invalid id\");\n        require(projects[id].state != states.end,\"Funding isnot available right now\");\n        require(msg.sender != projects[id].creator,\"Project creator cannot fund the project\");\n        projects[id].fundraised += msg.value;\n        projects[id].state = states.funding;\n        checkprojecttime(id);\n\n        emit Projectfunded( msg.sender,  msg.value);\n    }\n    \n    //get the list of total project present the blockchain \n    function getprojectdetails(uint256 _id) public view returns(string memory title , string memory details, uint256 id, \n    \n        uint256 goalamount,\n        uint256 fundraised,\n        uint256 duedate,\n        address creator, \n        states state\n        ){\n        require(_id <= counter,\"Invalid id\");\n        title = projects[_id].title;\n        details = projects[_id].details;\n        id = projects[_id].id;\n        goalamount = projects[_id].goalamount;\n        fundraised = projects[_id].fundraised;\n        duedate = projects[_id].duedate;\n        creator = projects[_id].creator;\n        state = projects[_id].state;\n        return( title, details, id, goalamount,fundraised,duedate,creator,state);\n    } \n    //decide whether to close funding or not\n    function checkprojecttime(uint _id) public {\n        if(block.timestamp >= projects[_id].duedate || projects[_id].fundraised >= projects[_id].goalamount){\n            projects[_id].state = states.end;\n            transferbalance(_id);\n        }\n    }\n    //get Details of the project \n    function getprojectlist() public view returns(uint){\n        return(counter);\n\n    }\n    function balancecheck() public view returns(uint){\n        return address(this).balance;\n    }\n    function transferbalance(uint _id) internal   {\n        projects[_id].creator.transfer(projects[_id].fundraised);\n        \n    }\n    function checkbalance(address addr) public view returns(uint){\n        return addr.balance;\n    }\n    \n}",
  "sourcePath": "/home/anu/Blockchain/Crowdfunding/contracts/Crowdfund.sol",
  "compiler": {
    "name": "solc",
    "version": "0.8.5+commit.a4f2e591.Emscripten.clang"
  },
  "schemaVersion": "3.4.0",
  "updatedAt": "2021-06-20T10:25:37.800Z",
  "networkType": "ethereum",
  "devdoc": {
    "kind": "dev",
    "methods": {},
    "version": 1
  },
  "userdoc": {
    "kind": "user",
    "methods": {},
    "version": 1
  }
}